:02013100C1000B
:1000E800E4F509C3E50994327480948050187F0AB6
:1000F8007E0012011120900A200005D2007F012203
:08010800C200050980DD7F0043
:0101100022CC
:10008F00E4F5A0F508C3E508941474809480500D2E
:10009F001200E8EF700763A0FF050880E8E4F50899
:1000AF00C3E508941474809480501075A055120005
:1000BF00E8EF700763A0FF050880E575A00FE4F572
:1000CF0008C3E50894147480948050B41200E8EFCC
:0900DF0070AE63A0FF050880E883
:10011100E4FDFCC3ED9FEC9E5015E4FBFA0BBB0024
:0F012100010AEB647B4A70F50DBD00010C80E410
:0101300022AC
:03000000020003F8
:0C000300787FE4F6D8FD75812002004AE9
:10000F0002008FE493A3F8E493A34003F68001F278
:10001F0008DFF48029E493A3F85407240CC8C333F2
:10002F00C4540F4420C8834004F456800146F6DFC1
:10003F00E4800B0102040810204080900131E47E1F
:10004F00019360BCA3FF543F30E509541FFEE493B6
:10005F00A360010ECF54C025E060A840B8E493A37D
:10006F00FAE493A3F8E493A3C8C582C8CAC583CAA8
:10007F00F0A3C8C582C8CAC583CADFE9DEE780BE60
:0101330000CB
:00000001FF
