:0A008E00C0F9A4B0999282F88090A6
:10000300E4F508C3E50894647480948050F2E5082D
:1000130075F00A84F509E50875F00A8485F00AE4A9
:10002300F50BF50CE50990008E93F5A0C2B07F01A6
:100033007E00120062D2B0E50A90008E93F5A0C252
:10004300B17F017E00120062D2B1050CE50C700293
:0F005300050BC394F4E50B940140C9050880A484
:10006200E4FDFCC3ED9FEC9E5015E4FBFA0BBB00D4
:0F007200010AEB647B4A70F50DBD00010C80E4C0
:01008100225C
:0300000002008279
:0C008200787FE4F6D8FD75810C020003C5
:00000001FF
