:10000000020A24F920E72824F950037907E4F424AC
:1000100002FB18DBFDE624FB5014E9600DE4F61842
:10002000E604F6B40A08E4F6D9F57401F60A22C229
:10003000D522ED33EC3392D5FA602AB4FF33EDC20A
:10004000E77BFF60067A007957E4227A0079602026
:10005000D5047A00795B224E614E002B494E460052
:100060002D494E4600E47A08F608DAFC7B00740756
:1000700022E8C0E0ECC0E0EDC0E0EEC0E0EFC0E0A0
:10008000EA75F010A4CAABF075F04DA42BFBE43573
:10009000F0FCEA2410FAEB34C5FBEC34D9FCEDC2D9
:1000A000E7FF75F056A4F42411C5F0F434C58FF0C1
:1000B000A42AE5F03BE43CF620E714120403D0E068
:1000C000FFD0E0FED0E0FDD0E0FC1203368014F457
:1000D00004120403D0E0FFD0E0FED0E0FDD0E0FC4D
:1000E00012022DD0E0F8E6FAEDD2E7CD33EC33245E
:1000F00082FBE4C3CF33CFCE33CECD33CD33DBF36E
:100100007B0775F00A846004F6081B0AE5F0F60820
:100110008FF0740AA4FFACF08EF0740AA42CFEAC2D
:10012000F050010C8DF0740AA42CFDE435F0F608B3
:10013000DBDE740722020478E86480F8E933E833F0
:1001400060110460F0ED33EC337009E8FCE9FDEA7E
:10015000FEEBFF220460DED3EB9FEA9EE99DE8C23E
:10016000E78CF0C2F795F0400CE8CCF8E9CDF9EA5D
:10017000CEFAEBCFFB12044385D0F0580470032075
:10018000D5B3E80470075002B2D502048292D5ECD0
:100190000460F7E4CCC0E0C398F8603B94186008B2
:1001A000400DD0E0FB02045AE4FBFAC9FC8028E8C9
:1001B00030E406E4C9FBE4CAFCE830E305E4C9CA5C
:1001C000CBFCE854076010F8C3E913F9EA13FAEB23
:1001D00013FBEC13FCD8F130F52FC3E49CFCEF9B30
:1001E000FFEE9AFEED99FDD0E0FBEF4E4D4C701204
:1001F00022DB0302047FEC2CFCEF33FFEE33FEED39
:1002000033FDED30E7EB02045AEF2BFFEE3AFEED43
:1002100039FDD0E0FB50130BBB0003020482ED1349
:10022000FDEE13FEEF13FFEC13FC02045AEC4D60DD
:1002300011E8497017ED33EC3304600DE4FCFFFE68
:10024000FD22E933E8330470F802047812044358BD
:10025000046009E4CC248150062850090204822855
:10026000400302047FC0E0EB4A7044B98006D0E04E
:10027000FB02046EEF4E701CBD8008EBFFEAFEE946
:10028000FD80EBE98DF0A4FEE5F0020316E9CDF95F
:10029000EAFEEBFFEF89F0A4FCE5F0CE89F0A42E96
:1002A000FFE435F0CD89F0A42DFEE435F08067EF52
:1002B0004E7005BD80D780C3EF8BF0A4ACF0EE8B01
:1002C000F0A42CFCE435F0F8EF8AF0A42CE5F0382B
:1002D000FCE433CB8DF0A42CFCE5F03BF8EE8AF087
:1002E000A42CFCE5F038F8E433CF89F0A42CFCE52D
:1002F000F038CF3400CE89F0A42FFFE5F03EFEE4C5
:1003000033C98DF0A42EFEE5F039CD8AF0A42FFF7D
:10031000E5F03EFEE43DFD33D0E0FB50070BBB00B3
:100320000F020482EC2CFCEF33FFEE33FEED33FDC5
:1003300002045A020482EC5D046005E8590470036B
:10034000020478120443580460F6EC4860F2EC7042
:1003500004FDFEFF22C860DB2481C85009C39860F9
:1003600002500602047F9850CAF582E9294B4A7070
:1003700005AB8202046E75F0007C1A7880C3EF9B97
:10038000EE9AED99400DC3EF9BFFEE9AFEED99FDBD
:10039000E842F0DC23ACF0D0E0FFD0E0FED0E0FD9E
:1003A000AB8220E7101BEB60BAEC2CFCEF33FFEEC6
:1003B00033FEED33FD02045AE803F830E705C0F0E0
:1003C00075F000EF2FFFEE33FEED33FD40B830E760
:1003D000C280AA3F8000004120000042C8000044C3
:1003E0007A0000461C400047C35000497424004B6B
:1003F0001896804CBEBC205A0E1BCA6753C21C7490
:100400009DC5AEFB60065407601C2323120431EB2C
:100410005438600912041D12042C12022DECF8ED60
:10042000F9EEFAEFCB22EB12042C80F154380324BE
:100430001C9003D3FE93FC0EEE93FD0EEE930ECEB6
:1004400093FF22E9D2E7C933E833F892D5EDD2E73A
:10045000CD33EC33FC5002B2D522EC30E7100FBFA5
:10046000000C0EBE00080DBD00040BEB6014A2D5FD
:10047000EB13FCED92E7FD2274FFFCFDFEFF22E48E
:1004800080F8A2D574FF13FC7D80E480EFBB0106E9
:1004900089828A83E0225002E722BBFE02E322899E
:1004A000828A83E49322BB010CE58229F582E583ED
:1004B0003AF583E0225006E92582F8E622BBFE06E3
:1004C000E92582F8E222E58229F582E5833AF5837F
:1004D000E49322BB010689828A83F0225002F7222C
:1004E000BBFE01F322FAE6FB0808E6F925F0F61850
:1004F000E6CA3AF622D083D082F8E49370127401EF
:1005000093700DA3A393F8740193F5828883E47329
:100510007402936860EFA3A3A380DFE53A2426F872
:10052000E6053A2278233007027826E475F00112B6
:1005300004E502048D2000EB7F2ED2008018EF54DA
:100540000F2490D43440D4FF30040BEF24BFB41AEE
:100550000050032461FFE53B6002153B053EE53E8C
:100560007002053D30070D7823E475F0011204E5B3
:10057000EF0204D30209C47403D2078003E4C20764
:10058000F53A8B238A248925E4F53BF53DF53EE5D4
:100590003B60077F2012055680F5753CFFC201C203
:1005A00000C202C203C205C206C208120524FF70BF
:1005B0000D3007057F00120567AF3EAE3D22B42522
:1005C0005FC2D5C204120524FF24D0B40A00501A19
:1005D00075F00A783B30D50508B6FF0106C6A4269B
:1005E000F620D5047002D20380D924CFB41A00EFCC
:1005F0005004C2E5D204020854D20180C6D2008061
:10060000C0D20280BCD2D580BAD20580B47F20127D
:1006100005562002077401B53B0040F112051BFF8F
:1006200012055602058FD208D206809512051BFBD3
:1006300012051BFA12051BF94A4B7006794B7A0911
:100640007BFF20022EE53B602A7E008E82758300B0
:100650001204A660060EEE653C70F0C2D5EBC0E059
:10066000EAC0E0E9C0E0EE1208B4D0E0F9D0E0FA68
:10067000D0E0FB12048DFF60AAEBC0E0EAC0E0E925
:10068000C0E0120556D0E02401F9D0E03400FAD0E1
:10069000E0FBE53C0460DCD53CD98087D20280A237
:1006A00012089760F7E53C700104120003A93C6052
:1006B0000DE53C600914F53C12093EEF60F3EA30A9
:1006C000E702F404C3995077EAF4253C0430E701CB
:1006D000E404F53C800D12089760C1EA053C253C16
:1006E000120003EA7839F630E701E4253C04D53CF2
:1006F00004200501141208B4E4C0E012093E783960
:10070000E6601320E70714F612053E802204F6D0B7
:10071000E014C0E07F0012053EE53C60071205359D
:10072000153C800B300503120535D0E002058FD053
:10073000E00480C512089760A0E53C04120003782D
:1007400039EAF6E53C20050260010424041208B4ED
:1007500074FF04C0E012093E12053EE53C2005028C
:100760006003120535D0E0B53CE87F4512054878B6
:1007700039E67F2B30E7047F2DF404C0E0120556E4
:10078000D0E075F00A84C0F012053FD0E012053FBA
:1007900002058F791080027908C206C2088008D24B
:1007A000D5790A8004790AC2D5E53C047002F53C8B
:1007B000E4FAFDFEFF12051BFC7B08200113120565
:1007C0001BFD7B1030000A12051BFE12051BFF7B70
:1007D00020EC3382D592D55013C3E43000069FFF3E
:1007E000E49EFEE42001039DFDE49CFCE4CBF8C202
:1007F00001EC700CCFCECDCCE824F8F870F3801764
:10080000C3EF33FFEE33FEED33FDEC33FCEB33FB94
:10081000994002FB0FD8E9EB300105F8D0E0C4485D
:10082000B201C0E00AEC4D4E4F78207B0070C2EA66
:10083000B53C0040BCC0E01208B6D0F0D0E02001CA
:1008400004C4C0E0C4B201C0F012053FD0F0D5F03E
:10085000EB02058F1204F5062C5307935805FD4C47
:1008600005F94207974F079F44079F490612430720
:10087000A55506D64607344506A047096B50060124
:100880002D06052E06282B06092306262009542AA4
:1008900005C14800000620E53CB4FF03753C061284
:1008A000051BFC12051BFD12051BFE12051BFF7824
:1008B00032020032790AA2D5200314300509B9109A
:1008C000020404B9080104A2D52006025001042044
:1008D00002689202B53B005034C0E07F203003191B
:1008E0007F30A20272067205500F12090DC202C2B9
:1008F00006C205C2087F30800F300503E9C0E01250
:100900000556300503D0E0F9D0E0B53BCC300517F3
:100910007F30B9100C1205567F583004077F78805D
:1009200003B908031205563002057F2D0205567FD4
:10093000202008F87F2B2006F322920280CF7F0030
:10094000B4070050052432F8E6FF22286E756C6C5F
:100950002900D20112051B3001F8C201783B30D5C5
:100960000108F60205C12D5043495812051B240306
:10097000B405004001E490096693120547743A12E9
:100980000547D203753B04020793120A107BFF7AD6
:100990000A79427529C37528F575274875264012CE
:1009A000057D7BFF7A0A794C1209EB120A308F22FF
:1009B000E52224E0FF1209C47F0D1209C47F0A1248
:1009C00009C480DEEFB40A07740D1209CF740A302F
:1009D0009811A899B8130CC2983098FDA899C2989C
:1009E000B811F63099FDC299F599228B238A248992
:1009F00025E4FEAB23AA24A9258E82758300120468
:100A0000A6FFFD3395E04D6006120A3A0E80E422FF
:100A1000C29FD29E53890F438920758DFDD28ED2FD
:100A200099D29C22787FE4F6D8FD75813E02098A2E
:100A30003098FDAF99C2987E00223099FDC2998FFF
:100A4000992270693D252E32660D0A006E6861702C
:0F0A50002076616F2031206B692074753A200089
:00000001FF
