:0A00FE00C0F9A4B0999282F8809036
:10006A00E4F508D3E50894637480948050F2E508B7
:10007A0075F00A849000FE93F509E50875F00A8484
:10008A00E5F093F50A7B007A0079097D02120003F4
:0B009A007F2C7E011200D2050880C8F8
:1000D200E4FDFCC3ED9FEC9E5015E4FBFA0BBB0064
:0F00E200010AEB647B4A70F50DBD00010C80E450
:0100F10022EC
:080003008B0B8A0C890D8D0E98
:10000B00E4F50FE50FC3950E5050AB0B7C00E50DDF
:10001B00250EF9EC350CFAC3E9950FF9EA9400FAC1
:10002B0090FFFF1200A5FDE4FBEBC39408748094D2
:10003B008050237E007480A803088006CEA2E713AD
:10004B00CE13D8F8FFEDF582EF558224FF92A1C2B3
:0E005B00A0D2A00B80D3050F80A9C2A2D2A212
:010069002274
:030000000200F209
:0C00F200787FE4F6D8FD75810F02006AEB
:1000A500BB010CE58229F582E5833AF583E0225010
:1000B50006E92582F8E622BBFE06E92582F8E2225A
:0D00C500E58229F582E5833AF583E4932274
:00000001FF
