:100000001215F3120E9E12016E120DC7120DF81288
:10001000019F1205E112060C120EC412055B1205B7
:10002000321200AB1204461200FC12016E12019F44
:100030001201D01202031214371211EF121313120D
:1000400010CB120236120254120D9B1202721202CF
:10005000A21202D21202F01203231219A91203569D
:1000600012037012039D1203CE1203EC12067112DA
:10007000088E12040A12042812044612046612049E
:10008000991204CC1204FF120ECF1210CB1211EFF2
:10009000121313121437120B001205B8120E291284
:1000A000197812088E12155B020000743FF580F576
:1000B000A0F5B0F590121C4203B43FF174FCF5803A
:1000C000F5A0F5B0F590121C4223B4FCF174FFF5D5
:1000D00080F5A0F5B0F59074FFC313F580F5A0F599
:1000E000B0F590121C42B400F07400D333F580F5E3
:1000F000A0F5B0F590121C42B4FFF022741FF580F9
:1001000003121C69B41FF77580FF741FF5A003125A
:100110001C69B41FF775A0FF741FF5B003121C69AA
:10012000B41FF775B0FF741FF59003121C69B41F5C
:10013000F77590FF2274F8F590121C6923B4F8F754
:100140007590FF74F8F5B0121C6923B4F8F775B018
:10015000FF74F8F5A0121C6923B41FF775A0FF7493
:10016000F8F580121C6923B4F8F77580FF2274FF3C
:10017000C313121C42F580B400F674FFC313121CA3
:1001800042F5A0B400F674FFC313121C42F5B0B4DC
:1001900000F674FFC313121C42F590B400F62274EB
:1001A00000D313121C42F580B4FFF67400D313126F
:1001B0001C42F5A0B4FFF67400D313121C42F5B034
:1001C000B4FFF67400D313121C42F590B4FFF6226C
:1001D0007DFF7EFFC3ED13FD8D80121C42C3EE3305
:1001E000FE8E90121C42BE00EB7DFF7EFFC3ED131E
:1001F000FD8DA0121C42C3EE33FE8EB0121C42BE17
:1002000000EB227D007E00D3ED13FD8DB0121C4269
:10021000D3EE33FE8EA0121C42BEFFEB7D007E00AB
:10022000D3ED13FD8D90121C42D3EE33FE8E80125F
:100230001C42BEFFEB227DFF7EFFC3ED13FD8D90C0
:100240008DA0121C42C3EE33FE8EB08E80121C4273
:10025000BE00E7227D007E00D3ED13FD8D908DA0C2
:10026000121C42D3EE33FE8EB08E80121C42BEFFB3
:10027000E72279FF7AFF7DFF7EFFC3ED13FD8D80BE
:10028000121C42C3EE33FE8E90121C42C3E913F9D6
:1002900089B0121C42C3EA33FA8AA0121C42BD0084
:1002A000D92279007A007D007E00D3ED33FD8D8068
:1002B000121C42D3EE13FE8E90121C42D3E933F986
:1002C00089B0121C42D3EA13FA8AA0121C42BDFF65
:1002D000D9227DFF7EFFC3ED33FD8D908DA0121CD2
:1002E00042C3EE13FE8E808EB0121C42BE00E72287
:1002F0007DFF7EFFC3ED13FD8DB0121C42C3EE33B4
:10030000FE8EA0121C42BE00EB7DFF7EFFC3ED13EC
:10031000FD8D90121C42C3EE33FE8E80121C42BE35
:1003200000EB227D007E00D3ED33FD8D90121C4248
:10033000D3EE13FE8E80121C42BEFFEB7D007E00CA
:10034000D3ED33FD8DB0121C42D3EE13FE8EA012FE
:100350001C42BEFFEB227D05121C5C121C42758004
:100360000075A00075B000759000121C42DDE922F6
:100370007480F580121C4203B480F77480F5A012DB
:100380001C4203B480F77480F5B0121C4203B480A1
:10039000F77480F590121C4203B480F7227400D3E6
:1003A00013121C42F580B4FFF67400D313121C42E2
:1003B000F5A0B4FFF67400D313121C42F5B0B4FFDD
:1003C000F67400D313121C42F590B4FFF6227DFFA1
:1003D0007EFFC3ED33FD8D908DB0121C42C3EE3312
:1003E000FE8EA08E80121C42BE00E7227D007E00A1
:1003F000D3ED33FD8D908DB0121C42D3EE33FE8EC3
:10040000A08E80121C42BEFFE7227DFF7EFFC3ED5F
:1004100013FD8D908DB0121C42C3EE13FE8EA08E84
:1004200080121C42BE00E7227D007E00D3ED13FD4A
:100430008D908DB0121C42D3EE13FE8EA08E8012D2
:100440001C42BEFFE7227D05741FF580F5A0F5B0C4
:10045000F590121C4203B41FF1DDED74FFF580F539
:10046000A0F5B0F590227DFF7EFFC3ED33FD8D90AA
:10047000121C42C3EE33FE8EA0121C42BE00EB7D66
:10048000FF7EFFC3ED33FD8DB0121C42C3EE33FE81
:100490008E80121C42BE00EB227D007E00D3ED3325
:1004A000FD8D90121C42D3EE33FE8EA0121C42BE74
:1004B000FFEB7D007E00D3ED33FD8DB0121C42D3E7
:1004C000EE33FE8E80121C42BEFFEB227DFF7EFFCC
:1004D000C3ED13FD8D80121C42C3EE13FE8EB012CD
:1004E0001C42BE00EB7DFF7EFFC3ED13FD8DA0120D
:1004F0001C42C3EE13FE8E90121C42BE00EB227D06
:10050000007E00D3ED13FD8D80121C42D3EE13FE4E
:100510008EB0121C42BEFFEB7D007E00D3ED13FDBA
:100520008DA0121C42D3EE13FE8E90121C42BEFF11
:10053000EB227D0575900075A000121C427580FFAE
:1005400075B0FF121C4275800075B000121C427518
:1005500090FF75A0FF121C42DDDA227D3F7EFCED8C
:1005600003FD8D80121C42EE23FE8E90121C42BDB4
:100570003FED7D3F7EFCED03FD8DA0121C42EE237E
:10058000FE8EB0121C42BD3FED7DFC7E3FED23FD93
:100590008DA0121C42EE03FE8EB0121C42BDFCED7B
:1005A0007DFC7E3FED23FD8D80121C42EE03FE8E0E
:1005B00090121C42BDFCED227D0675900075B000C6
:1005C000121C427580FF75A0FF121C4275800075D9
:1005D000A000121C427590FF75B0FF121C42DDDABC
:1005E000227D05747FF580F5B0121C6903B47FF598
:1005F0007580FF75B0FF747FF5A0F590121C69033C
:10060000B47FF5DDDE75A0FF7590FF227DFF7EFFD4
:10061000C3ED13FD8D80121C69C3EE13FE8EB01264
:100620001C69BE00EB7DFF7EFFC3ED13FD8DA012A4
:100630001C69C3EE13FE8E90121C69BE00EB79009C
:100640007A00D3E913F98980121C69D3EA13FA8A74
:10065000B0121C69BAFFEB79007A00D3E913F9896B
:10066000A0121C69D3EA13FA8A90121C69BAFFEB34
:100670002275A0FE7590FE75B0FE7580FE121C7688
:1006800075A0FD7590FD75B0FD7580FD121C767529
:10069000A0FB7590FB75B0FB7580FB121C7675A0F6
:1006A000F77590F775B0F77580F7121C7675A0EFA7
:1006B0007590EF75B0EF7580EF121C7675A0DF7541
:1006C00090DF75B0DF7580DF121C7675A0BF759066
:1006D000BF75B0BF7580BF121C7675A07F75907F07
:1006E00075B07F75807F121C76121C7675A07E75A2
:1006F000907E75B07E75807E121C7675A07D75909B
:100700007D75B07D75807D121C7675A07B75907BA4
:1007100075B07B75807B121C7675A07775B0777588
:10072000A077758077121C7675A06F75906F75B085
:100730006F75806F121C7675A05F75905F75B05FE6
:1007400075805F121C7675A03F75903F75B03F7540
:10075000803F121C7675A03E75903E75B03E758048
:100760003E121C7675A03D75903D75B03D75803D7F
:10077000121C7675A03B75903B75B03B75803B12A3
:100780001C7675A03775903775B037758037121C99
:100790007675A02F75902F75B02F75802F121C764F
:1007A00075A01F75901F75B01F75801F121C767580
:1007B000A01E75901E75B01E75801E121C7675A049
:1007C0001D75901D75B01D75801D121C7675A01BC2
:1007D00075901B75B01B75801B121C7675A0177564
:1007E000901775B017758017121C7675A00F75904D
:1007F0000F75B00F75800F121C7675A00E75900ED8
:1008000075B00E75800E121C7675A00D75900D7565
:10081000B00D75800D121C7675A00B75900B75B020
:100820000B75800B121C7675A00775900775B007C5
:10083000758007121C7675A00675900675B0067552
:100840008006121C7675A00575900575B00575803B
:1008500005121C7675A00375900375B003758003AF
:10086000121C7675A00275900275B0027580021296
:100870001C7675A00175900275B001758002121C7E
:100880007675A00075900075B00075800022759097
:10089000FF75A0FF121C7675A00175900175B0015F
:1008A000758001121C7675A00275900275B00275F4
:1008B0008002121C7675A00475900475B0047580D2
:1008C00004121C7675A00875900875B0087580082C
:1008D000121C7675A01075901075B01075801012EE
:1008E0001C7675A02075902075B020758020121C94
:1008F0007675A04075904075B040758040121C76AA
:1009000075A08075908075B080758080121C7612FD
:100910001C7675A08175908175B081758081121CDF
:100920007675A08275908275B082758082121C7671
:1009300075A08475908475B084758084121C76755A
:10094000A08875908875B088758088121C7675A00F
:100950009075909075B090758090121C7675A0A0DF
:100960007590A075B0A07580A0121C7675A0C0759A
:1009700090C075B0C07580C0121C7675A0C175900E
:10098000C175B0C17580C1121C7675A0C27590C2C8
:1009900075B0C27580C2121C7675A0C47590C475FE
:1009A000B0C47580C4121C7675A0C87590C875B0A7
:1009B000C87580C8121C7675A0D07590D075B0D05F
:1009C0007580D0121C7675A0E07590E075B0E0756A
:1009D00080E0121C7675A0E17590E175B0E175803C
:1009E000E1121C7675A0E27590E275B0E27580E2C6
:1009F000121C7675A0E47590E475B0E47580E4127D
:100A00001C7675A0E87590E875B0E87580E8121C52
:100A10007675A0F07590F075B0F07580F0121C76C8
:100A200075A0F17590F175B0F17580F1121C7675B5
:100A3000A0F27590F275B0F27580F2121C7675A076
:100A4000F47590F475B0F47580F4121C7675A0F806
:100A50007590F875B0F87580F8121C7675A0F97568
:100A600090F975B0F97580F9121C7675A0FA759039
:100A7000FA75B0FA7580FA121C7675A0FC7590FCB8
:100A800075B0FC7580FC121C7675A0FD7590FD7527
:100A9000B0FD7580FD121C7675A0FE7590FE75B0D8
:100AA000FE7580FE121C7675A0FF7590FF75B0FF75
:100AB0007580FF227590FE75A0FE121C427590FD98
:100AC00075A0FD121C427590FB75A0FB121C4275AF
:100AD00090F775A0F7121C427590EF75A0EF121CED
:100AE000427590DF75A0DF121C427590BF75A0BFE4
:100AF000121C4275907F75A07F7590FF75A0FF2234
:100B0000120AB475B0FE7580FE121C4275B0FD75F8
:100B100080FD121C4275B0FB7580FB121C4275B043
:100B2000F77580F7121C4275B0EF7580EF121C420A
:100B300075B0DF7580DF121C4275B0DF7580DF1283
:100B40001C4275B07F75807F120AB475B07E7580C7
:100B50007E121C4275B07D75807D121C4275B07B83
:100B600075807B121C4275B077758077121C4275B8
:100B7000B06F75806F121C4275B05F75805F121C7C
:100B80004275B03F75803F121C42120AB475B03EE8
:100B900075803E121C4275B03D75803D121C427539
:100BA000B03B75803B121C4275B037758037121C04
:100BB0004275B02F75802F121C4275B01F75801FB3
:100BC000121C42120AB475B01E75801E121C4275AA
:100BD000B01D75801D121C4275B01B75801B121C48
:100BE0004275B017758017121C4275B00F75800FD3
:100BF000121C42120AB475B00E75800E121C42759A
:100C0000B00D75800D121C4275B00B75800B121C57
:100C10004275B007758007121C42120AB475B006FF
:100C2000758006121C4275B005758005121C427550
:100C3000B003758003121C42120AB475B0027580AD
:100C400002121C4275B001758001121C42120AB4D6
:100C500075B000758000121C427590FE75A0FE12E2
:100C60001C427590FD75A0FD121C427590FB75A08D
:100C7000FB121C427590F775A0F7121C427590EF9D
:100C800075A0EF121C427590DF75A0DF121C427533
:100C900090BF75A0BF121C4275907F75A07F7590A4
:100CA0007E75A07E121C4275907D75A07D121C423F
:100CB00075907B75A07B121C4275907775A077129A
:100CC0001C4275906F75A06F121C4275905F75A0E5
:100CD0005F121C4275903F75A03F121C4275903EFA
:100CE00075A03E121C4275903D75A03D121C4275C8
:100CF000903B75A03B121C4275903775A037121CB3
:100D00004275902F75A02F121C4275901F75A01F61
:100D1000121C4275901E75A01E121C4275901D7506
:100D2000A01D121C4275901B75A01B121C427590D1
:100D30001775A017121C4275900F75A00F121C4258
:100D400075900E75A00E121C4275900D75A00D12B7
:100D50001C4275900B75A00B121C4275900775A074
:100D600007121C4275900675A006121C427590056C
:100D700075A005121C4275900375A003121C4275E4
:100D8000900275A002121C4275900175A001121C00
:100D90004275900075A000121C5C227D0378F879E2
:100DA0001FE903F9899089A0121C42E823F8888082
:100DB00088B0121C42B41FE9DDE37580FF7590FF17
:100DC00075A0FF75B0FF227400D333121C42F5905A
:100DD000B4FFF67400D333121C42F5B0B4FFF674BE
:100DE00000D333121C42F5A0B4FFF67400D33312C3
:100DF0001C42F580B4FFF62274FFC333121C42F587
:100E000090B400F674FFC333121C42F5B0B400F680
:100E100074FFC333121C42F5A0B400F674FFC33351
:100E2000121C42F580B400F6227D0374FEF5901288
:100E30001C6923B4FEF77590FF74FEF5B0121C69AF
:100E400023B4FEF775B0FF74FEF5A0121C6923B43D
:100E5000FEF775A0FF74FEF580121C6923B4FEF73F
:100E60007580FF747FF580121C6903B47FF775806D
:100E7000FF747FF5A0121C6903B47FF775A0FF749F
:100E80007FF5B0121C6903B47FF775B0FF747FF56E
:100E900090121C6903B47FF77590FFDD8E227D05EB
:100EA0007590557580AA75B05575A0AA121C42752B
:100EB00090AA75805575B0AA75A055121C42DDE048
:100EC000121C5C227D021200FC120135DDF8227535
:100ED000807F121C427580FF121C427580BF121C5D
:100EE0004275807F121C427580AF121C4275805F74
:100EF000121C427580AB121C42758057121C427541
:100F000080AB121C42758055121C427580AA121CBF
:100F100042758055121C4275805575A07F121C4287
:100F20007580AA75A0FF121C4275805575A0BF126E
:100F30001C427580AA75A07F121C4275805575A051
:100F4000AF121C427580AA75A05F121C42758055B5
:100F500075A0AB121C427580AA75A057121C427571
:100F6000805575A0AB121C427580AA75A055121C45
:100F70004275805575A0AA121C427580AA75A055AD
:100F8000121C4275805575A05575B07F121C4275B4
:100F900080AA75A0AA75B0FF121C4275805575A075
:100FA0005575B0BF121C427580AA75A0AA75B07F96
:100FB000121C4275805575A05575B0AF121C427554
:100FC00080AA75A0AA75B05F121C4275805575A0E5
:100FD0005575B0AB121C427580AA75A0AA75B057A2
:100FE000121C4275805575A05575B0AB121C427528
:100FF00080AA75A0AA75B055121C4275805575A0BF
:101000005575B0AA121C427580AA75A0AA75B05574
:10101000121C4275805575A05575B05575907F129C
:101020001C427580AA75A0AA75B0AA7590FF121C03
:101030004275805575A05575B0557590BF121C420C
:101040007580AA75A0AA75B0AA75907F121C42750A
:10105000805575A05575B0557590AF121C427580BE
:10106000AA75A0AA75B0AA75905F121C427580552A
:1010700075A05575B0557590AB121C427580AA7558
:10108000A0AA75B0AA759057121C4275805575A01C
:101090005575B0557590AB121C427580AA75A0AA03
:1010A00075B0AA759055121C4275805575A055757E
:1010B000B0557590AA121C427580AA75A0AA75B089
:1010C000AA759055121C42121C5C2275807F759087
:1010D000FE121C427580FF7590FF121C427580BF86
:1010E0007590FD121C4275807F7590FE121C427532
:1010F00080AF7590F5121C4275805F7590FA121CD6
:10110000427580AB7590D5121C427580577590EA78
:10111000121C427580AB7590D5121C4275805575B6
:1011200090AA121C427580AA759055121C427580B7
:10113000557590AA121C4275805575905575A07F03
:1011400075B0FE121C427580AA7590AA75A0FF7535
:10115000B0FF121C4275805575905575A0BF75B0D3
:10116000FD121C427580AA7590AA75A07F75B0FE0D
:10117000121C4275805575905575A0AF75B0F5126B
:101180001C427580AA7590AA75A05F75B0FA121CF2
:101190004275805575905575A0AB75B0D5121C423F
:1011A0007580AA7590AA75A05775B0EA121C427591
:1011B000805575905575A0AB75B0D5121C427580E1
:1011C000AA7590AA75A05575B0AA121C42758055D3
:1011D00075905575A0AA75B055121C427580AA75F8
:1011E00090AA75A05575B0AA121C42121C5C2275FB
:1011F000A07F7580FE121C4275A0FF7580FF121C37
:101200004275A0BF7580FD121C4275A07F7580FEDF
:10121000121C4275A0AF7580F5121C4275A05F7557
:1012200080FA121C4275A0AB7580D5121C4275A0C5
:10123000577580EA121C4275A0AB7580D5121C420E
:1012400075A0557580AA121C4275A0AA758055120A
:101250001C4275A0557580AA121C4275805575A058
:101260005575B07F7590FE121C427580AA75A0AAB4
:1012700075B0FF7590FF121C4275805575A05575AD
:10128000B0BF7590FD121C427580AA75A0AA75B0FA
:101290007F7590FE121C4275805575A05575B0AFD4
:1012A0007590F5121C427580AA75A0AA75B05F757D
:1012B00090FA121C4275805575A05575B0AB7590AB
:1012C000D5121C427580AA75A0AA75B0577590EA10
:1012D000121C4275805575A05575B0AB7590D5122E
:1012E0001C427580AA75A0AA75B0557590AA121CEB
:1012F0004275805575A05575B0AA759055121C425F
:101300007580AA75A0AA75B0557590AA121C4212D4
:101310001C5C2275907F75B0FE121C427590FF75A3
:10132000B0FF121C427590BF75B0FD121C42759043
:101330007F75B0FE121C427590AF75B0F5121C425D
:1013400075905F75B0FA121C427590AB75B0D512EE
:101350001C4275905775B0EA121C427590AB75B07F
:10136000D5121C4275905575B0AA121C427590AAF0
:1013700075B055121C4275905575B0AA121C427575
:10138000905575B05575807F75A0FE121C42759002
:10139000AA75B0AA7580FF75A0FF121C4275905502
:1013A00075B0557580BF75A0FD121C427590AA7569
:1013B000B0AA75807F75A0FE121C4275905575B05D
:1013C000557580AF75A0F5121C427590AA75B0AA2C
:1013D00075805F75A0FA121C4275905575B05575F1
:1013E00080AB75A0D5121C427590AA75B0AA758005
:1013F0005775A0EA121C4275905575B0557580ABB3
:1014000075A0D5121C427590AA75B0AA7580557545
:10141000A0AA121C4275905575B0557580AA75A08A
:1014200055121C427590AA75B0AA75805575A0AA70
:10143000121C42121C5C2275B07F75A0FE121C4269
:1014400075B0FF75A0FF121C4275B0BF75A0FD12EC
:101450001C4275B07F75A0FE121C4275B0AF75A01E
:10146000F5121C4275B05F75A0FA121C4275B0AB44
:1014700075A0D5121C4275B05775A0EA121C4275B2
:10148000B0AB75A0D5121C4275B05575A0AA121C40
:101490004275B0AA75A055121C4275B05575A0AA28
:1014A000121C4275B05575A05575907F7580FE125F
:1014B0001C4275B0AA75A0AA7590FF7580FF121C1A
:1014C0004275B05575A0557590BF7580FD121C42D0
:1014D00075B0AA75A0AA75907F7580FE121C427522
:1014E000B05575A0557590AF7580F5121C4275B05A
:1014F000AA75A0AA75905F7580FA121C4275B05546
:1015000075A0557590AB7580D5121C4275B0AA7543
:10151000A0AA7590577580EA121C4275B05575A047
:10152000557590AB7580D5121C4275B0AA75A0AAEE
:101530007590557580AA121C4275B05575A05575E9
:1015400090AA758055121C4275B0AA75A0AA759014
:10155000557580AA121C42121C5C227DFF7EFFC3BF
:10156000ED13FD8D80121C35C3EE13FE8EB0121CE0
:1015700035BE00EB7DFF7EFFC3ED13FD8DA0121C79
:1015800035C3EE13FE8E90121C35BE00EB121C5CB0
:10159000227590FE121C427590FD121C427590FB44
:1015A000121C427590F7121C427590EF121C427586
:1015B00090DF121C427590BF121C4275907F75908F
:1015C000FF2275807F121C427580BF121C427580FD
:1015D000DF121C427580EF121C427580F7121C420C
:1015E0007580FB121C427580FD121C427580FE75D1
:1015F00080FF2212159175B0FE121C4275B0FD12CB
:101600001C4275B0FB121C4275B0F7121C4275B03B
:10161000EF121C4275B0DF121C4275B0BF121C42A3
:1016200075B07F1215C275A07F121C4275A0BF1243
:101630001C4275A0DF121C4275A0EF121C4275A05F
:10164000F7121C4275A0FB121C4275A0FD121C4231
:1016500075A0FE12159175B07E121C4275B07D12F8
:101660001C4275B07B121C4275B077121C4275B0DB
:101670006F121C4275B05F121C4275B03F121C42C3
:101680001215C2121C4275A07E121C4275A0BE1219
:101690001C4275A0DE121C4275A0EE121C4275A001
:1016A000F6121C4275A0FA121C4275A0FC1215918C
:1016B00075B03E121C4275B03D121C4275B03B1213
:1016C0001C4275B037121C4275B02F121C4275B007
:1016D0001F121C421215C2121C4275A07C121C4221
:1016E00075A0BC121C4275A0DC121C4275A0EC1245
:1016F0001C4275A0F4121C4275A0F812159175B029
:101700001E121C4275B01D121C4275B01B121C42E9
:1017100075B017121C4275B00F121C421215C2127E
:101720001C4275A078121C4275A0B8121C4275A00C
:10173000D8121C4275A0E8121C4275A0F012159137
:1017400075B00E121C4275B00D121C4275B00B1212
:101750001C4275B007121C421215C2121C4275A021
:1017600070121C4275A0B0121C4275A0D0121C420F
:1017700075A0E012159175B006121C4275B00512E5
:101780001C4275B003121C421215C2121C4275A0F5
:1017900060121C4275A0A0121C4275A0C0121591C7
:1017A00075B002121C4275B001121C421215C21211
:1017B0001C4275A040121C4275A08012159175B094
:1017C00000121C421215C2121C4275A0007590FE38
:1017D000121C427590FD121C427590FB121C427542
:1017E00090F7121C427590EF121C427590DF121C8C
:1017F000427590BF121C4275907F75807F121C420B
:101800007580BF121C427580DF121C427580EF127A
:101810001C427580F7121C427580FB121C427580B9
:10182000FD121C427580FE75907E121C4275907DE3
:10183000121C4275907B121C42759077121C4275E7
:10184000906F121C4275905F121C4275903F121CE3
:101850004275807E121C427580BE121C427580DE6D
:10186000121C427580EE121C427580F6121C4275E5
:1018700080FA121C427580FC121C4275903E121CAC
:101880004275903D121C4275903B121C4275903778
:10189000121C4275902F121C4275901F121C42752B
:1018A000807C121C427580BC121C427580DC121CAC
:1018B000427580EC121C427580F4121C427580F84F
:1018C000121C4275901E121C4275901D121C42750E
:1018D000901B121C42759017121C4275900F121C1F
:1018E00042758078121C427580B8121C427580D8EF
:1018F000121C427580E8121C427580F0121C427561
:10190000900E121C4275900D121C4275900B121C09
:1019100042759007121C42758070121C427580B08F
:10192000121C427580D0121C427580E0121C427558
:101930009006121C42759005121C42759003121CF1
:1019400042758060121C427580A0121C427580C0D6
:10195000121C42759002121C42759001121C4275B5
:101960008040121C42758080121C42759000121C2F
:1019700042758000121C5C22758000121C4F75A0FD
:1019800000121C4F75B000121C4F759000121C4FB6
:101990007580FF121C4F75A0FF121C4F75B0FF120F
:1019A0001C4F7590FF121C4F2275B0FE7580FE1201
:1019B0001C4275B0FD7580FD121C4275B0FB758030
:1019C000FB121C4275B0F77580F7121C4275B0EF20
:1019D0007580EF121C4275B0DF7580DF121C4275F6
:1019E000B0BF7580BF121C4275B07F75807F121C1E
:1019F0004275907F75A07F121C427590BF75A0BF85
:101A0000121C427590DF75A0DF121C427590EF75B5
:101A1000A0EF121C427590F775A0F7121C4275904A
:101A2000FB75A0FB121C427590FD75A0FD121C42B7
:101A30007590FE75A0FE121C4275B07E75807E12F8
:101A40001C4275B07D75807D121C4275B07B75801F
:101A50007B121C4275B077758077121C4275B06F8F
:101A600075806F121C4275B05F75805F121C4275E5
:101A7000B03F75803F121C4275907E75A07E121C8F
:101A8000427590BE75A0BE121C427590DE75A0DE38
:101A9000121C427590EE75A0EE121C427590F67500
:101AA000A0F6121C427590FA75A0FA121C427590AD
:101AB000FC75A0FC121C4275B03E75803E121C42A3
:101AC00075B03D75803D121C4275B03B75803B1270
:101AD0001C4275B037758037121C4275B02F758067
:101AE0002F121C4275B01F75801F121C4275907C0E
:101AF00075A07C121C427590BC75A0BC121C42756E
:101B000090DC75A0DC121C427590EC75A0EC121CE8
:101B1000427590F475A0F4121C427590F875A0F807
:101B2000121C4275B01E75801E121C4275B01D75C8
:101B3000801D121C4275B01B75801B121C4275B0B3
:101B400017758017121C4275B00F75800F121C425A
:101B500075907875A078121C427590B875A0B8126F
:101B60001C427590D875A0D8121C427590E875A0DB
:101B7000E8121C427590F075A0F0121C4275B00E70
:101B800075800E121C4275B00D75800D121C4275C9
:101B9000B00B75800B121C4275B007758007121CC4
:101BA0004275907075A070121C427590B075A0B00F
:101BB000121C427590D075A0D0121C427590E07531
:101BC000A0E0121C4275B006758006121C4275B06A
:101BD00005758005121C4275B003758003121C4206
:101BE00075906075A060121C427590A075A0A0123F
:101BF0001C427590C075A0C0121C4275B002758061
:101C000002121C4275B001758001121C4275904091
:101C100075A040121C4275908075A080121C427500
:101C2000B000758000121C4275900075A000121C57
:101C300042121C5C227CFA7FC800000000DFFADC44
:101C4000F6227C827F6400000000DFFADCF6227C52
:101C5000FA7FFA00000000DFFADCF6227580FF75DB
:101C600090FF75A0FF75B0FF227C967F32000000C8
:101C700000DFFADCF6227FFA7EC8DFFE7FFADEFAAA
:101C80002200000000000000000000000000000032
:00000001FF
