:0A00CB00C0F9A4B0999282F8809069
:10006500120003EF6002F508E50875F00A849000B8
:10007500CB93F5A0C2B07F017E0012009FD2B0E500
:100085000875F00A84E5F09000CB93F5A0C2B17F26
:0A009500017E0012009FD2B180C668
:10009F00E4FDFCC3ED9FEC9E5015E4FBFA0BBB0097
:0F00AF00010AEB647B4A70F50DBD00010C80E483
:0100BE00221F
:10000300E4FFC2902094010F2095027F0220960204
:100013007F032097027F04D290C2912094027F0530
:100023002095027F062096027F072097027F08D241
:1000330091C2922094027F092095027F0A209602A2
:100043007F0B2097027F0CD292C2932094027F0DE4
:100053002095027F0E2096027F0F2097027F10D2F9
:010063009309
:010064002279
:030000000200BF3C
:0C00BF00787FE4F6D8FD7581080200652A
:00000001FF
