:0A015F00C0F9A4B0999282F88090D4
:10000300C280D282D281750814AF08EF3395E0C362
:10001300648094804043E50875F00A120111FF33B0
:1000230095E0FE745F2FF58274013EF583E493F54A
:10003300A0E50875F00A120111AFF0EF3395E0FE69
:10004300745F2FF58274013EF583E493F5B07FE886
:100053007E03120133150880B0D280C282D281752B
:10006300080FAF08EF3395E0C3648094804043E505
:100073000875F00A120111FF3395E0FE745F2FF546
:100083008274013EF583E493F5A0E50875F00A1246
:100093000111AFF0EF3395E0FE745F2FF582740129
:1000A3003EF583E493F5B07FE87E03120133150830
:1000B30080B0D280D282C281750805AF08EF339534
:1000C300E0C3648094805003020003E50875F00ADE
:1000D300120111FF3395E0FE745F2FF58274013E28
:1000E300F583E493F5A0E50875F00A120111AFF06A
:1000F300EF3395E0FE745F2FF58274013EF583E4E0
:0E01030093F5B07FE87E03120133150880AD3E
:10013300E4FDFCC3ED9FEC9E5015E4FBFA0BBB0002
:0F014300010AEB647B4A70F50DBD00010C80E4EE
:01015200228A
:03000000020153A7
:0C015300787FE4F6D8FD758108020003F7
:10011100C2D530F707B2D563F0FF05F030E70CB276
:10012100D5F4048463F0FF05F080018430D502F436
:020131000422A6
:00000001FF
