:0A017E00C0F9A4B0999282F88090B5
:04000300AB07AA0697
:100007007C277D101200D18F0C7C277D10AF03AEAB
:10001700021200D1AA04AB057C037DE8AF03AE0250
:100027001200D18F0D7C037DE8AF03AE021200D121
:10003700AA04AB057C007D64AF03AE021200D18F2A
:100047000E7C007D64AF03AE021200D1AA04AB059B
:100057007C007D0AAF03AE021200D18F0FAE02AF54
:10006700037C007D0A1200D18D10E50C90017E9370
:10007700F580C2A47F017E00120152D2A4E50D9043
:10008700017E93F580C2A37F017E00120152D2A3A5
:10009700E50E90017E93F580C2A27F017E001201DA
:1000A70052D2A2E50F90017E93F580C2A17F017E17
:1000B70000120152D2A1E51090017E93F580C2A0F3
:0900C7007F017E00120152D2A05B
:0100D000220D
:100126005389F0438905D28C858C09858A08E509AF
:10013600B58CF5750A00F50BE50B750B00F50AE5B0
:0C01460008420BAF0BAE0A12000380DC75
:10015200E4FDFCC3ED9FEC9E5015E4FBFA0BBB00E3
:0F016200010AEB647B4A70F50DBD00010C80E4CF
:01017100226B
:0300000002017288
:0C017200787FE4F6D8FD758110020126AC
:1000D100BC000BBE0029EF8DF084FFADF022E4CC13
:1000E100F875F008EF2FFFEE33FEEC33FCEE9DECDC
:1000F100984005FCEE9DFE0FD5F0E9E4CEFD22ED22
:10010100F8F5F0EE8420D21CFEADF075F008EF2F6B
:10011100FFED33FD4007985006D5F0F222C398FD5C
:050121000FD5F0EA22F9
:00000001FF
