:10000300E4F5A0F508C3E5089408748094805013C0
:10001300E5A025E04401F5A07FC87E0012006D0530
:100023000880E2E4F508C3E50894087480948050DE
:1000330011E5A025E0F5A07FC87E0012006D05083C
:0200430080E457
:010045002298
:10004600E4F508C3E508940A74809480501875A0F6
:10005600557FC87E0012006D75A0AA7FC87E00126B
:06006600006D050880DDBD
:01006C002271
:0800990012000312004680F87A
:10006D00E4FDFCC3ED9FEC9E5015E4FBFA0BBB00C9
:0F007D00010AEB647B4A70F50DBD00010C80E4B5
:01008C002251
:0300000002008D6E
:0C008D00787FE4F6D8FD75810802009928
:00000001FF
