:040054007FF47E01B6
:10005800E4FDFCC3ED9FEC9E5015E4FBFA0BBB00DE
:0F006800010AEB647B4A70F50DBD00010C80E4CA
:010077002266
:100003007901E9C3940574809480500FE4F580125C
:1000130000547580FF1200580980E77901E9C39401
:100023000574809480500F75800F1200547580F012
:100033001200580980E77901E9C39405748094801C
:1000430050BE7580551200547580AA12005809805D
:01005300E7C5
:0300000002007883
:0C007800787FE4F6D8FD758107020003D4
:00000001FF
