:10006A00E4FFEFC3940274809480500974082FF857
:10007A00E4F60F80ED7B007A0079087D0212000316
:10008A007F587E021200E7E4FFEFC3940274809463
:10009A0080500974082FF876FF0F80ED7B007A00F4
:1000AA0079087D021200037F587E021200E780B0B1
:1000E700E4FDFCC3ED9FEC9E5015E4FBFA0BBB004F
:0F00F700010AEB647B4A70F50DBD00010C80E43B
:0101060022D6
:080003008B0A8A0B890C8D0D9C
:10000B00E4F50EE50EC3950D5050AB0A7C00E50CE4
:10001B00250DF9EC350BFAC3E9950EF9EA9400FAC4
:10002B0090FFFF1200BAFDE4FBEBC39408748094BD
:10003B008050237E007480A803088006CEA2E713AD
:10004B00CE13D8F8FFEDF582EF558224FF92A1C2B3
:0E005B00A0D2A00B80D3050E80A9C2A2D2A213
:010069002274
:03000000020107F3
:0C010700787FE4F6D8FD75810E02006AD6
:1000BA00BB010CE58229F582E5833AF583E02250FB
:1000CA0006E92582F8E622BBFE06E92582F8E22245
:0D00DA00E58229F582E5833AF583E493225F
:00000001FF
