:0A016800C0F9A4B0999282F88090CB
:0600EC00C2907F067E00B9
:1000F200C3E49FFFE49EF58CEFF58AD28C308DFD30
:04010200C28CC28D5C
:0101060022D6
:04007E00AD07AC0618
:10008200E4FBFAAF05AE02EBA807088005C333CE46
:1000920033CED8F94E6015E4FFFE0FBF00010EEF1C
:0C00A200647C4E70F50BBB00010A80D797
:0100AE00222F
:1000CE00C2907FE07E011200F2D2907F461E120097
:0D00DE00F2A290E433FD7F061200F2AF05A0
:0100EB0022F2
:0A015E001200ECD2907F400200F284
:10013600C2907F3C7E001200F2D2907F0A0200F24B
:0C014600EF6401700302015E120136221A
:10011F001200ECD2907F091200F2A290E433FD7F1F
:06012F00371200F2AF05DB
:0101350022A7
:02010700AD0742
:100109007C08AF041CEF600DED5401FF120146EDB0
:05011900C313FD80EDA1
:01011E0022BE
:1000AF007C08E4FBAF041CEF6012EBC313FB1201DF
:0E00BF001FEFC43333335480420380E8AF0395
:0100CD002210
:100003004389011200CEEF70FA7FCC1201077F44BF
:100013001201077FEE7E0212007E1200CEEF70FA0D
:100023007FCC1201077FBE1201071200AF750800D3
:100033008F091200AFEFFEEE4208E508C4F854F052
:10004300C8E509C4540F48FD75F00A84F9ED75F04D
:100053000A84ACF0E509540F75F00AA4FFE5F0C477
:10006300F854F0C8EFC4540F48FFE990016893F5C2
:0B00730080EC93F5A0EF93F5B08088BF
:03000000020152A8
:0C015200787FE4F6D8FD758109020003F7
:00000001FF
