:10008D006E6861702076616F206B692074752069D0
:10009D006E207468756F6E67203A002D2D3E000D31
:0200AD000A0047
:1000CF00C29FD29E758920758DFDD28ED299D29CFA
:0100DF0022FE
:0800EC003099FDC2998F9922A1
:0600F400A298E433FF2294
:0500FA00C298AF99223D
:060068008B088A09890AD9
:10006E00E4FEAB08AA09A90A8E8275830012003B32
:0E007E00FFFD3395E04D60061200EC0E80E4AD
:01008C002251
:100003001200CF7BFF7A00798D1200681200F4EFA3
:100013003395E04F60F61200FAAC0774E02CFC7BDA
:10002300FF7A0079A8120068AF041200EC7BFF7A14
:080033000079AC12006880CBDB
:1000AF00E4FDFCC3ED9FEC9E5015E4FBFA0BBB0087
:0F00BF00010AEB64714A70F50DBD00010C80E47D
:0100CE00220F
:030000000200E01B
:0C00E000787FE4F6D8FD75810A02000369
:10003B00BB010CE58229F582E5833AF583E022507A
:10004B0006E92582F8E622BBFE06E92582F8E222C4
:0D005B00E58229F582E5833AF583E49322DE
:00000001FF
