:0A011B00C0F9A4B0999282F8809018
:10000300E4F50AF509F508E4F50DC3E50D94A674C6
:1000130080948040030200C5E50875F00A84F50B5F
:10002300E50875F00A8485F00CE50B90011B93F548
:10003300A0C2B07F017E001200EFD2B0E50C9001A8
:100043001B93F5A0C2B17F017E001200EFD2B1E590
:100053000975F00A84F50BE50975F00A8485F00C3F
:10006300E50B90011B93F5A0C2B27F017E00120045
:10007300EFD2B2E50C90011B93F5A0C2B37F017ED2
:10008300001200EFD2B3E50A75F00A84F50BE50A16
:1000930075F00A8485F00CE50B90011B93F5A0C263
:1000A300B47F017E001200EFD2B4E50C90011B93E4
:1000B300F5A0C2B57F017E001200EFD2B5050D0297
:1000C300000D050AE50A643C600302000AF50A050F
:1000D30009E509643C600302000AF5090508E5081F
:0C00E3006418600302000AF50802000A1D
:1000EF00E4FDFCC3ED9FEC9E5015E4FBFA0BBB0047
:0F00FF00010AEB647B4A70F50DBD00010C80E433
:01010E0022CE
:0300000002010FEB
:0C010F00787FE4F6D8FD75810D02000336
:00000001FF
