:100000001114114D116C118B119D118B119D118BC0
:10001000119D80EC75800075900075A00075B00092
:100020007400D333F58011AFB4FFF77400D333F508
:100030009011AFB4FFF77400D333F5A011AFB4FF44
:10004000F77400D333F5B011AFB4FFF7227F097511
:10005000800075A0007590FF75B0FF11AF7590001E
:1000600075B0007580FF75A0FF11AF2275805575C2
:10007000905575A05575B05511AF7580AA7590AAA9
:1000800075A0AA75B0AA11AFDFE2227400D313F5F0
:1000900080F590F5A0F5B011AFB4FFF1227400D354
:1000A00033F580F590F5A0F5B011AFB4FFF12279EA
:0B00B0003278C8000000D8FBD9F7220E
:00000001FF
