:10000300120112E4F508C3E50894647480948050E7
:100013000DAF087E00AD08120043050880E8E4F543
:1000230008C3E50894647480948050F2AF087E009E
:100033001200B98F907FF47E01120099050880E1C8
:100043008E098F0A8D0BC2A37F06120074D2A3C23E
:10005300A37F02120074E509FF120074AF0AE50AD8
:10006300120074AF0B120074D2A31200F5EF70FAF2
:01007300226A
:0400B9008E098F0A13
:1000BD00C2A37F03120074E509FF120074AF0AE5B5
:0900CD000A1200741200D7D2A33C
:0100D6002207
:1000F500C2A37F051200741200D7D2A3EF5401FFEB
:0101050022D7
:07011200D2A3C2A0D2A22279
:1000D700E4FEEEC39408748094805011EF25E0FF8E
:0D00E700D2A030A203430701C2A00E80E5A5
:0100F40022E9
:10007400E4FEEEC39408748094805018EF548064B6
:10008400807004D2A18002C2A1D2A0EF25E0FFC2F9
:04009400A00E80DE5C
:010098002245
:10009900E4FDFCC3ED9FEC9E5015E4FBFA0BBB009D
:0F00A900010AEB647B4A70F50DBD00010C80E489
:0100B8002225
:03000000020106F4
:0C010600787FE4F6D8FD75810B02000341
:00000001FF
